{
    "_format": "hh-sol-artifact-1",
    "contractName": "BuyMeACoffee",
    "sourceName": "contracts/BuyMeACoffee.sol",
    "abi": [
        {
            "inputs": [],
            "stateMutability": "nonpayable",
            "type": "constructor"
        },
        {
            "anonymous": false,
            "inputs": [
                {
                    "indexed": true,
                    "internalType": "address",
                    "name": "from",
                    "type": "address"
                },
                {
                    "indexed": false,
                    "internalType": "uint256",
                    "name": "timestamp",
                    "type": "uint256"
                },
                {
                    "indexed": false,
                    "internalType": "string",
                    "name": "name",
                    "type": "string"
                },
                {
                    "indexed": false,
                    "internalType": "string",
                    "name": "message",
                    "type": "string"
                }
            ],
            "name": "NewMemo",
            "type": "event"
        },
        {
            "inputs": [
                {
                    "internalType": "string",
                    "name": "_name",
                    "type": "string"
                },
                {
                    "internalType": "string",
                    "name": "_message",
                    "type": "string"
                }
            ],
            "name": "buyCoffee",
            "outputs": [],
            "stateMutability": "payable",
            "type": "function"
        },
        {
            "inputs": [],
            "name": "getMemos",
            "outputs": [
                {
                    "components": [
                        {
                            "internalType": "address",
                            "name": "from",
                            "type": "address"
                        },
                        {
                            "internalType": "uint256",
                            "name": "timestamp",
                            "type": "uint256"
                        },
                        {
                            "internalType": "string",
                            "name": "name",
                            "type": "string"
                        },
                        {
                            "internalType": "string",
                            "name": "message",
                            "type": "string"
                        }
                    ],
                    "internalType": "struct BuyMeACoffee.Memo[]",
                    "name": "",
                    "type": "tuple[]"
                }
            ],
            "stateMutability": "view",
            "type": "function"
        },
        {
            "inputs": [],
            "name": "getOwner",
            "outputs": [
                {
                    "internalType": "address",
                    "name": "",
                    "type": "address"
                }
            ],
            "stateMutability": "view",
            "type": "function"
        },
        {
            "inputs": [
                {
                    "internalType": "address payable",
                    "name": "newOwner",
                    "type": "address"
                }
            ],
            "name": "transferOwnership",
            "outputs": [],
            "stateMutability": "nonpayable",
            "type": "function"
        },
        {
            "inputs": [],
            "name": "withdrawTips",
            "outputs": [],
            "stateMutability": "nonpayable",
            "type": "function"
        }
    ],
    "bytecode": "0x608060405234801561001057600080fd5b50336000806101000a81548173ffffffffffffffffffffffffffffffffffffffff021916908373ffffffffffffffffffffffffffffffffffffffff160217905550610c85806100606000396000f3fe60806040526004361061004a5760003560e01c8063204206e11461004f5780633aaa74b21461006b578063865c517214610082578063893d20e8146100ad578063f2fde38b146100d8575b600080fd5b6100696004803603810190610064919061071f565b610101565b005b34801561007757600080fd5b50610080610289565b005b34801561008e57600080fd5b506100976102e9565b6040516100a4919061096a565b60405180910390f35b3480156100b957600080fd5b506100c26104cc565b6040516100cf919061094f565b60405180910390f35b3480156100e457600080fd5b506100ff60048036038101906100fa91906106f6565b6104f5565b005b60003411610144576040517f08c379a000000000000000000000000000000000000000000000000000000000815260040161013b9061098c565b60405180910390fd5b600160405180608001604052803373ffffffffffffffffffffffffffffffffffffffff16815260200142815260200184815260200183815250908060018154018082558091505060019003906000526020600020906004020160009091909190915060008201518160000160006101000a81548173ffffffffffffffffffffffffffffffffffffffff021916908373ffffffffffffffffffffffffffffffffffffffff1602179055506020820151816001015560408201518160020190805190602001906102139291906105d6565b5060608201518160030190805190602001906102309291906105d6565b5050503373ffffffffffffffffffffffffffffffffffffffff167fc56140e05f516509ae28110e0f72e17558a7561630dad2647c3ae87d986e365c42848460405161027d939291906109ac565b60405180910390a25050565b60008054906101000a900473ffffffffffffffffffffffffffffffffffffffff1673ffffffffffffffffffffffffffffffffffffffff166108fc479081150290604051600060405180830381858888f193505050506102e757600080fd5b565b60606001805480602002602001604051908101604052809291908181526020016000905b828210156104c357838290600052602060002090600402016040518060800160405290816000820160009054906101000a900473ffffffffffffffffffffffffffffffffffffffff1673ffffffffffffffffffffffffffffffffffffffff1673ffffffffffffffffffffffffffffffffffffffff168152602001600182015481526020016002820180546103a090610b3d565b80601f01602080910402602001604051908101604052809291908181526020018280546103cc90610b3d565b80156104195780601f106103ee57610100808354040283529160200191610419565b820191906000526020600020905b8154815290600101906020018083116103fc57829003601f168201915b5050505050815260200160038201805461043290610b3d565b80601f016020809104026020016040519081016040528092919081815260200182805461045e90610b3d565b80156104ab5780601f10610480576101008083540402835291602001916104ab565b820191906000526020600020905b81548152906001019060200180831161048e57829003601f168201915b5050505050815250508152602001906001019061030d565b50505050905090565b60008060009054906101000a900473ffffffffffffffffffffffffffffffffffffffff16905090565b60008054906101000a900473ffffffffffffffffffffffffffffffffffffffff1673ffffffffffffffffffffffffffffffffffffffff163373ffffffffffffffffffffffffffffffffffffffff161461054d57600080fd5b61055681610559565b50565b600073ffffffffffffffffffffffffffffffffffffffff168173ffffffffffffffffffffffffffffffffffffffff16141561059357600080fd5b806000806101000a81548173ffffffffffffffffffffffffffffffffffffffff021916908373ffffffffffffffffffffffffffffffffffffffff16021790555050565b8280546105e290610b3d565b90600052602060002090601f016020900481019282610604576000855561064b565b82601f1061061d57805160ff191683800117855561064b565b8280016001018555821561064b579182015b8281111561064a57825182559160200191906001019061062f565b5b509050610658919061065c565b5090565b5b8082111561067557600081600090555060010161065d565b5090565b600061068c61068784610a16565b6109f1565b9050828152602081018484840111156106a457600080fd5b6106af848285610afb565b509392505050565b6000813590506106c681610c38565b92915050565b600082601f8301126106dd57600080fd5b81356106ed848260208601610679565b91505092915050565b60006020828403121561070857600080fd5b6000610716848285016106b7565b91505092915050565b6000806040838503121561073257600080fd5b600083013567ffffffffffffffff81111561074c57600080fd5b610758858286016106cc565b925050602083013567ffffffffffffffff81111561077557600080fd5b610781858286016106cc565b9150509250929050565b600061079783836108c7565b905092915050565b6107a881610aad565b82525050565b6107b781610aad565b82525050565b60006107c882610a57565b6107d28185610a7a565b9350836020820285016107e485610a47565b8060005b858110156108205784840389528151610801858261078b565b945061080c83610a6d565b925060208a019950506001810190506107e8565b50829750879550505050505092915050565b600061083d82610a62565b6108478185610a8b565b9350610857818560208601610b0a565b61086081610bfe565b840191505092915050565b600061087682610a62565b6108808185610a9c565b9350610890818560208601610b0a565b61089981610bfe565b840191505092915050565b60006108b1601a83610a9c565b91506108bc82610c0f565b602082019050919050565b60006080830160008301516108df600086018261079f565b5060208301516108f26020860182610931565b506040830151848203604086015261090a8282610832565b915050606083015184820360608601526109248282610832565b9150508091505092915050565b61093a81610af1565b82525050565b61094981610af1565b82525050565b600060208201905061096460008301846107ae565b92915050565b6000602082019050818103600083015261098481846107bd565b905092915050565b600060208201905081810360008301526109a5816108a4565b9050919050565b60006060820190506109c16000830186610940565b81810360208301526109d3818561086b565b905081810360408301526109e7818461086b565b9050949350505050565b60006109fb610a0c565b9050610a078282610b6f565b919050565b6000604051905090565b600067ffffffffffffffff821115610a3157610a30610bcf565b5b610a3a82610bfe565b9050602081019050919050565b6000819050602082019050919050565b600081519050919050565b600081519050919050565b6000602082019050919050565b600082825260208201905092915050565b600082825260208201905092915050565b600082825260208201905092915050565b6000610ab882610ad1565b9050919050565b6000610aca82610ad1565b9050919050565b600073ffffffffffffffffffffffffffffffffffffffff82169050919050565b6000819050919050565b82818337600083830152505050565b60005b83811015610b28578082015181840152602081019050610b0d565b83811115610b37576000848401525b50505050565b60006002820490506001821680610b5557607f821691505b60208210811415610b6957610b68610ba0565b5b50919050565b610b7882610bfe565b810181811067ffffffffffffffff82111715610b9757610b96610bcf565b5b80604052505050565b7f4e487b7100000000000000000000000000000000000000000000000000000000600052602260045260246000fd5b7f4e487b7100000000000000000000000000000000000000000000000000000000600052604160045260246000fd5b6000601f19601f8301169050919050565b7f63616e27742062757920636f6666656520666f72206672656521000000000000600082015250565b610c4181610abf565b8114610c4c57600080fd5b5056fea2646970667358221220f5a27296cff96e310d1db27ba84907816f59bf546e77889f12e060d377a0d68264736f6c63430008040033",
    "linkReferences": {},
    "deployedLinkReferences": {}
}